{
  "contractName": "DSChiefFab",
  "abi": [
    {
      "constant": false,
      "inputs": [
        {
          "name": "gov",
          "type": "address"
        },
        {
          "name": "MAX_YAYS",
          "type": "uint256"
        }
      ],
      "name": "newChief",
      "outputs": [
        {
          "name": "chief",
          "type": "address"
        }
      ],
      "payable": false,
      "stateMutability": "nonpayable",
      "type": "function"
    }
  ],
  "bytecode": "0x608060405234801561001057600080fd5b506149e1806100206000396000f300608060405260043610610041576000357c0100000000000000000000000000000000000000000000000000000000900463ffffffff1680633435e5f314610046575b600080fd5b34801561005257600080fd5b50610091600480360381019080803573ffffffffffffffffffffffffffffffffffffffff169060200190929190803590602001909291905050506100d3565b604051808273ffffffffffffffffffffffffffffffffffffffff1673ffffffffffffffffffffffffffffffffffffffff16815260200191505060405180910390f35b6000806100de61028d565b8080602001828103825260038152602001807f494f550000000000000000000000000000000000000000000000000000000000815250602001915050604051809103906000f080158015610136573d6000803e3d6000fd5b50905083818461014461029d565b808473ffffffffffffffffffffffffffffffffffffffff1673ffffffffffffffffffffffffffffffffffffffff1681526020018373ffffffffffffffffffffffffffffffffffffffff1673ffffffffffffffffffffffffffffffffffffffff1681526020018281526020019350505050604051809103906000f0801580156101d0573d6000803e3d6000fd5b5091508073ffffffffffffffffffffffffffffffffffffffff166313af4035836040518263ffffffff167c0100000000000000000000000000000000000000000000000000000000028152600401808273ffffffffffffffffffffffffffffffffffffffff1673ffffffffffffffffffffffffffffffffffffffff168152602001915050600060405180830381600087803b15801561026e57600080fd5b505af1158015610282573d6000803e3d6000fd5b505050505092915050565b604051611d13806102ae83390190565b6040516129f580611fc183390190560060806040526012600555602060405190810160405280600081525060069080519060200190620000319291906200017f565b506020604051908101604052806000815250600790805190602001906200005a9291906200017f565b503480156200006857600080fd5b5060405162001d1338038062001d1383398101806040528101908080518201929190505050600080600160003373ffffffffffffffffffffffffffffffffffffffff1673ffffffffffffffffffffffffffffffffffffffff16815260200190815260200160002081905550806000819055505033600460006101000a81548173ffffffffffffffffffffffffffffffffffffffff021916908373ffffffffffffffffffffffffffffffffffffffff1602179055503373ffffffffffffffffffffffffffffffffffffffff167fce241d7ca1f669fee44b6fc00b8eba2df3bb514eed0f6f668f8f89096e81ed9460405160405180910390a28060079080519060200190620001779291906200017f565b50506200022e565b828054600181600116156101000203166002900490600052602060002090601f016020900481019282601f10620001c257805160ff1916838001178555620001f3565b82800160010185558215620001f3579182015b82811115620001f2578251825591602001919060010190620001d5565b5b50905062000202919062000206565b5090565b6200022b91905b80821115620002275760008160009055506001016200020d565b5090565b90565b611ad5806200023e6000396000f300608060405260043610610154576000357c0100000000000000000000000000000000000000000000000000000000900463ffffffff16806306fdde031461015957806307da68f5146101e9578063095ea7b31461020057806313af40351461026557806318160ddd146102a857806323b872dd146102d3578063313ce5671461035857806340c10f191461038357806342966c68146103d057806370a08231146103fd57806375f12b21146104545780637a9e5e4b146104835780638da5cb5b146104c657806395d89b411461051d5780639dc29fac146105ad578063a0712d68146105fa578063a9059cbb14610627578063b753a98c1461068c578063b84c8246146106d9578063bb35783b14610742578063be9a6555146107af578063bf7e214f146107c6578063c47f00271461081d578063daea85c514610886578063dd62ed3e146108e1578063f2d5d56b14610958575b600080fd5b34801561016557600080fd5b5061016e6109a5565b6040518080602001828103825283818151815260200191508051906020019080838360005b838110156101ae578082015181840152602081019050610193565b50505050905090810190601f1680156101db5780820380516001836020036101000a031916815260200191505b509250505060405180910390f35b3480156101f557600080fd5b506101fe610a43565b005b34801561020c57600080fd5b5061024b600480360381019080803573ffffffffffffffffffffffffffffffffffffffff16906020019092919080359060200190929190505050610b9a565b604051808215151515815260200191505060405180910390f35b34801561027157600080fd5b506102a6600480360381019080803573ffffffffffffffffffffffffffffffffffffffff169060200190929190505050610bca565b005b3480156102b457600080fd5b506102bd610cac565b6040518082815260200191505060405180910390f35b3480156102df57600080fd5b5061033e600480360381019080803573ffffffffffffffffffffffffffffffffffffffff169060200190929190803573ffffffffffffffffffffffffffffffffffffffff16906020019092919080359060200190929190505050610cb5565b604051808215151515815260200191505060405180910390f35b34801561036457600080fd5b5061036d610e5b565b6040518082815260200191505060405180910390f35b34801561038f57600080fd5b506103ce600480360381019080803573ffffffffffffffffffffffffffffffffffffffff16906020019092919080359060200190929190505050610e61565b005b3480156103dc57600080fd5b506103fb60048036038101908080359060200190929190505050610f6d565b005b34801561040957600080fd5b5061043e600480360381019080803573ffffffffffffffffffffffffffffffffffffffff169060200190929190505050610f7a565b6040518082815260200191505060405180910390f35b34801561046057600080fd5b50610469610fc3565b604051808215151515815260200191505060405180910390f35b34801561048f57600080fd5b506104c4600480360381019080803573ffffffffffffffffffffffffffffffffffffffff169060200190929190505050610fd6565b005b3480156104d257600080fd5b506104db6110b8565b604051808273ffffffffffffffffffffffffffffffffffffffff1673ffffffffffffffffffffffffffffffffffffffff16815260200191505060405180910390f35b34801561052957600080fd5b506105326110de565b6040518080602001828103825283818151815260200191508051906020019080838360005b83811015610572578082015181840152602081019050610557565b50505050905090810190601f16801561059f5780820380516001836020036101000a031916815260200191505b509250505060405180910390f35b3480156105b957600080fd5b506105f8600480360381019080803573ffffffffffffffffffffffffffffffffffffffff1690602001909291908035906020019092919050505061117c565b005b34801561060657600080fd5b5061062560048036038101908080359060200190929190505050611315565b005b34801561063357600080fd5b50610672600480360381019080803573ffffffffffffffffffffffffffffffffffffffff16906020019092919080359060200190929190505050611322565b604051808215151515815260200191505060405180910390f35b34801561069857600080fd5b506106d7600480360381019080803573ffffffffffffffffffffffffffffffffffffffff16906020019092919080359060200190929190505050611337565b005b3480156106e557600080fd5b50610740600480360381019080803590602001908201803590602001908080601f0160208091040260200160405190810160405280939291908181526020018383808284378201915050505050509192919290505050611347565b005b34801561074e57600080fd5b506107ad600480360381019080803573ffffffffffffffffffffffffffffffffffffffff169060200190929190803573ffffffffffffffffffffffffffffffffffffffff1690602001909291908035906020019092919050505061139a565b005b3480156107bb57600080fd5b506107c46113ab565b005b3480156107d257600080fd5b506107db611502565b604051808273ffffffffffffffffffffffffffffffffffffffff1673ffffffffffffffffffffffffffffffffffffffff16815260200191505060405180910390f35b34801561082957600080fd5b50610884600480360381019080803590602001908201803590602001908080601f0160208091040260200160405190810160405280939291908181526020018383808284378201915050505050509192919290505050611528565b005b34801561089257600080fd5b506108c7600480360381019080803573ffffffffffffffffffffffffffffffffffffffff16906020019092919050505061157b565b604051808215151515815260200191505060405180910390f35b3480156108ed57600080fd5b50610942600480360381019080803573ffffffffffffffffffffffffffffffffffffffff169060200190929190803573ffffffffffffffffffffffffffffffffffffffff1690602001909291905050506115ca565b6040518082815260200191505060405180910390f35b34801561096457600080fd5b506109a3600480360381019080803573ffffffffffffffffffffffffffffffffffffffff16906020019092919080359060200190929190505050611651565b005b60068054600181600116156101000203166002900480601f016020809104026020016040519081016040528092919081815260200182805460018160011615610100020316600290048015610a3b5780601f10610a1057610100808354040283529160200191610a3b565b820191906000526020600020905b815481529060010190602001808311610a1e57829003601f168201915b505050505081565b610a71336000357fffffffff0000000000000000000000000000000000000000000000000000000016611661565b1515610a7c57600080fd5b600080600435915060243590506000357fffffffff00000000000000000000000000000000000000000000000000000000167bffffffffffffffffffffffffffffffffffffffffffffffffffffffff19167f644843f351d3fba4abcd60109eaff9f54bac8fb8ccf0bab941009c21df21cf3133848434600036604051808773ffffffffffffffffffffffffffffffffffffffff1673ffffffffffffffffffffffffffffffffffffffff16815260200186600019166000191681526020018560001916600019168152602001848152602001806020018281038252848482818152602001925080828437820191505097505050505050505060405180910390a26001600460146101000a81548160ff0219169083151502179055505050565b6000600460149054906101000a900460ff16151515610bb857600080fd5b610bc283836118da565b905092915050565b610bf8336000357fffffffff0000000000000000000000000000000000000000000000000000000016611661565b1515610c0357600080fd5b80600460006101000a81548173ffffffffffffffffffffffffffffffffffffffff021916908373ffffffffffffffffffffffffffffffffffffffff160217905550600460009054906101000a900473ffffffffffffffffffffffffffffffffffffffff1673ffffffffffffffffffffffffffffffffffffffff167fce241d7ca1f669fee44b6fc00b8eba2df3bb514eed0f6f668f8f89096e81ed9460405160405180910390a250565b60008054905090565b6000600460149054906101000a900460ff16151515610cd357600080fd5b610d1c600160008673ffffffffffffffffffffffffffffffffffffffff1673ffffffffffffffffffffffffffffffffffffffff16815260200190815260200160002054836119cc565b600160008673ffffffffffffffffffffffffffffffffffffffff1673ffffffffffffffffffffffffffffffffffffffff16815260200190815260200160002081905550610da8600160008573ffffffffffffffffffffffffffffffffffffffff1673ffffffffffffffffffffffffffffffffffffffff16815260200190815260200160002054836119e8565b600160008573ffffffffffffffffffffffffffffffffffffffff1673ffffffffffffffffffffffffffffffffffffffff168152602001908152602001600020819055508273ffffffffffffffffffffffffffffffffffffffff168473ffffffffffffffffffffffffffffffffffffffff167fddf252ad1be2c89b69c2b068fc378daa952ba7f163c4a11628f55a4df523b3ef846040518082815260200191505060405180910390a3600190509392505050565b60055481565b600460149054906101000a900460ff16151515610e7d57600080fd5b610ec6600160008473ffffffffffffffffffffffffffffffffffffffff1673ffffffffffffffffffffffffffffffffffffffff16815260200190815260200160002054826119e8565b600160008473ffffffffffffffffffffffffffffffffffffffff1673ffffffffffffffffffffffffffffffffffffffff16815260200190815260200160002081905550610f15600054826119e8565b6000819055508173ffffffffffffffffffffffffffffffffffffffff167f0f6798a560793a54c3bcfe86a93cde1e73087d944c0ea20544137d4121396885826040518082815260200191505060405180910390a25050565b610f77338261117c565b50565b6000600160008373ffffffffffffffffffffffffffffffffffffffff1673ffffffffffffffffffffffffffffffffffffffff168152602001908152602001600020549050919050565b600460149054906101000a900460ff1681565b611004336000357fffffffff0000000000000000000000000000000000000000000000000000000016611661565b151561100f57600080fd5b80600360006101000a81548173ffffffffffffffffffffffffffffffffffffffff021916908373ffffffffffffffffffffffffffffffffffffffff160217905550600360009054906101000a900473ffffffffffffffffffffffffffffffffffffffff1673ffffffffffffffffffffffffffffffffffffffff167f1abebea81bfa2637f28358c371278fb15ede7ea8dd28d2e03b112ff6d936ada460405160405180910390a250565b600460009054906101000a900473ffffffffffffffffffffffffffffffffffffffff1681565b60078054600181600116156101000203166002900480601f0160208091040260200160405190810160405280929190818152602001828054600181600116156101000203166002900480156111745780601f1061114957610100808354040283529160200191611174565b820191906000526020600020905b81548152906001019060200180831161115757829003601f168201915b505050505081565b600460149054906101000a900460ff1615151561119857600080fd5b8173ffffffffffffffffffffffffffffffffffffffff167f87f089e5438b3d181476ce011851c6d3225172b67065ff764b9a205f10e6c50c600160008573ffffffffffffffffffffffffffffffffffffffff1673ffffffffffffffffffffffffffffffffffffffff168152602001908152602001600020546040518082815260200191505060405180910390a261126e600160008473ffffffffffffffffffffffffffffffffffffffff1673ffffffffffffffffffffffffffffffffffffffff16815260200190815260200160002054826119cc565b600160008473ffffffffffffffffffffffffffffffffffffffff1673ffffffffffffffffffffffffffffffffffffffff168152602001908152602001600020819055506112bd600054826119cc565b6000819055508173ffffffffffffffffffffffffffffffffffffffff167fcc16f5dbb4873280815c1ee09dbd06736cffcc184412cf7a71a0fdb75d397ca5826040518082815260200191505060405180910390a25050565b61131f3382610e61565b50565b600061132f338484610cb5565b905092915050565b611342338383610cb5565b505050565b611375336000357fffffffff0000000000000000000000000000000000000000000000000000000016611661565b151561138057600080fd5b8060069080519060200190611396929190611a04565b5050565b6113a5838383610cb5565b50505050565b6113d9336000357fffffffff0000000000000000000000000000000000000000000000000000000016611661565b15156113e457600080fd5b600080600435915060243590506000357fffffffff00000000000000000000000000000000000000000000000000000000167bffffffffffffffffffffffffffffffffffffffffffffffffffffffff19167f644843f351d3fba4abcd60109eaff9f54bac8fb8ccf0bab941009c21df21cf3133848434600036604051808773ffffffffffffffffffffffffffffffffffffffff1673ffffffffffffffffffffffffffffffffffffffff16815260200186600019166000191681526020018560001916600019168152602001848152602001806020018281038252848482818152602001925080828437820191505097505050505050505060405180910390a26000600460146101000a81548160ff0219169083151502179055505050565b600360009054906101000a900473ffffffffffffffffffffffffffffffffffffffff1681565b611556336000357fffffffff0000000000000000000000000000000000000000000000000000000016611661565b151561156157600080fd5b8060069080519060200190611577929190611a04565b5050565b6000600460149054906101000a900460ff1615151561159957600080fd5b6115c3827fffffffffffffffffffffffffffffffffffffffffffffffffffffffffffffffff6118da565b9050919050565b6000600260008473ffffffffffffffffffffffffffffffffffffffff1673ffffffffffffffffffffffffffffffffffffffff16815260200190815260200160002060008373ffffffffffffffffffffffffffffffffffffffff1673ffffffffffffffffffffffffffffffffffffffff16815260200190815260200160002054905092915050565b61165c823383610cb5565b505050565b60003073ffffffffffffffffffffffffffffffffffffffff168373ffffffffffffffffffffffffffffffffffffffff1614156116a057600190506118d4565b600460009054906101000a900473ffffffffffffffffffffffffffffffffffffffff1673ffffffffffffffffffffffffffffffffffffffff168373ffffffffffffffffffffffffffffffffffffffff1614156116ff57600190506118d4565b600073ffffffffffffffffffffffffffffffffffffffff16600360009054906101000a900473ffffffffffffffffffffffffffffffffffffffff1673ffffffffffffffffffffffffffffffffffffffff16141561175f57600090506118d4565b600360009054906101000a900473ffffffffffffffffffffffffffffffffffffffff1673ffffffffffffffffffffffffffffffffffffffff1663b70096138430856040518463ffffffff167c0100000000000000000000000000000000000000000000000000000000028152600401808473ffffffffffffffffffffffffffffffffffffffff1673ffffffffffffffffffffffffffffffffffffffff1681526020018373ffffffffffffffffffffffffffffffffffffffff1673ffffffffffffffffffffffffffffffffffffffff168152602001827bffffffffffffffffffffffffffffffffffffffffffffffffffffffff19167bffffffffffffffffffffffffffffffffffffffffffffffffffffffff191681526020019350505050602060405180830381600087803b15801561189657600080fd5b505af11580156118aa573d6000803e3d6000fd5b505050506040513d60208110156118c057600080fd5b810190808051906020019092919050505090505b92915050565b600081600260003373ffffffffffffffffffffffffffffffffffffffff1673ffffffffffffffffffffffffffffffffffffffff16815260200190815260200160002060008573ffffffffffffffffffffffffffffffffffffffff1673ffffffffffffffffffffffffffffffffffffffff168152602001908152602001600020819055508273ffffffffffffffffffffffffffffffffffffffff163373ffffffffffffffffffffffffffffffffffffffff167f8c5be1e5ebec7d5bd14f71427d1e84f3dd0314c0f7b2291e5b200ac8c7c3b925846040518082815260200191505060405180910390a36001905092915050565b600082828403915081111515156119e257600080fd5b92915050565b600082828401915081101515156119fe57600080fd5b92915050565b828054600181600116156101000203166002900490600052602060002090601f016020900481019282601f10611a4557805160ff1916838001178555611a73565b82800160010185558215611a73579182015b82811115611a72578251825591602001919060010190611a57565b5b509050611a809190611a84565b5090565b611aa691905b80821115611aa2576000816000905550600101611a8a565b5090565b905600a165627a7a7230582094be9e575c12f8a73ded1898b98d50f5a3795a96cd4b052532ffa1682c99adf70029608060405234801561001057600080fd5b506040516060806129f583398101806040528101908080519060200190929190805190602001909291908051906020019092919050505082828233600160006101000a81548173ffffffffffffffffffffffffffffffffffffffff021916908373ffffffffffffffffffffffffffffffffffffffff1602179055503373ffffffffffffffffffffffffffffffffffffffff167fce241d7ca1f669fee44b6fc00b8eba2df3bb514eed0f6f668f8f89096e81ed9460405160405180910390a282600a60006101000a81548173ffffffffffffffffffffffffffffffffffffffff021916908373ffffffffffffffffffffffffffffffffffffffff16021790555081600b60006101000a81548173ffffffffffffffffffffffffffffffffffffffff021916908373ffffffffffffffffffffffffffffffffffffffff16021790555080600d81905550505050306000806101000a81548173ffffffffffffffffffffffffffffffffffffffff021916908373ffffffffffffffffffffffffffffffffffffffff1602179055506000600160006101000a81548173ffffffffffffffffffffffffffffffffffffffff021916908373ffffffffffffffffffffffffffffffffffffffff160217905550505050612807806101ee6000396000f30060806040526004361061016a576000357c0100000000000000000000000000000000000000000000000000000000900463ffffffff168063046c472f1461016f57806306a36aee146101c657806313af403514610225578063180cb47f1461026857806327538e90146102bf5780632f47571f14610347578063362344b8146103cb5780633c278bd5146103f65780635123e1fa146104395780635d0341ba146104bb57806367aff484146105125780637a9e5e4b1461056e5780637d40583d146105b15780638da5cb5b14610636578063a078f7371461068d578063a69beaba146106f5578063b700961314610726578063bf7e214f146107ca578063c2ffc7bb14610821578063c6b0263e1461089c578063d381ba7c14610914578063d8bff5a514610963578063d8ccd0f3146109c2578063dd467064146109ef578063ed08132914610a1c578063fbf8077314610a9e578063fc7e286d14610af9578063fe95a5ce14610b50575b600080fd5b34801561017b57600080fd5b50610184610ba7565b604051808273ffffffffffffffffffffffffffffffffffffffff1673ffffffffffffffffffffffffffffffffffffffff16815260200191505060405180910390f35b3480156101d257600080fd5b50610207600480360381019080803573ffffffffffffffffffffffffffffffffffffffff169060200190929190505050610bcd565b60405180826000191660001916815260200191505060405180910390f35b34801561023157600080fd5b50610266600480360381019080803573ffffffffffffffffffffffffffffffffffffffff169060200190929190505050610c16565b005b34801561027457600080fd5b5061027d610c1b565b604051808273ffffffffffffffffffffffffffffffffffffffff1673ffffffffffffffffffffffffffffffffffffffff16815260200191505060405180910390f35b3480156102cb57600080fd5b50610329600480360381019080803573ffffffffffffffffffffffffffffffffffffffff16906020019092919080357bffffffffffffffffffffffffffffffffffffffffffffffffffffffff19169060200190929190505050610c41565b60405180826000191660001916815260200191505060405180910390f35b34801561035357600080fd5b506103b1600480360381019080803573ffffffffffffffffffffffffffffffffffffffff16906020019092919080357bffffffffffffffffffffffffffffffffffffffffffffffffffffffff19169060200190929190505050610cda565b604051808215151515815260200191505060405180910390f35b3480156103d757600080fd5b506103e0610d80565b6040518082815260200191505060405180910390f35b34801561040257600080fd5b50610437600480360381019080803573ffffffffffffffffffffffffffffffffffffffff169060200190929190505050610d86565b005b34801561044557600080fd5b5061049d60048036038101908080359060200190820180359060200190808060200260200160405190810160405280939291908181526020018383602002808284378201915050505050509192919290505050610f79565b60405180826000191660001916815260200191505060405180910390f35b3480156104c757600080fd5b506104fc600480360381019080803573ffffffffffffffffffffffffffffffffffffffff169060200190929190505050611147565b6040518082815260200191505060405180910390f35b34801561051e57600080fd5b5061056c600480360381019080803573ffffffffffffffffffffffffffffffffffffffff169060200190929190803560ff16906020019092919080351515906020019092919050505061115f565b005b34801561057a57600080fd5b506105af600480360381019080803573ffffffffffffffffffffffffffffffffffffffff169060200190929190505050611298565b005b3480156105bd57600080fd5b50610634600480360381019080803560ff169060200190929190803573ffffffffffffffffffffffffffffffffffffffff16906020019092919080357bffffffffffffffffffffffffffffffffffffffffffffffffffffffff1916906020019092919080351515906020019092919050505061129d565b005b34801561064257600080fd5b5061064b6114c4565b604051808273ffffffffffffffffffffffffffffffffffffffff1673ffffffffffffffffffffffffffffffffffffffff16815260200191505060405180910390f35b34801561069957600080fd5b506106db600480360381019080803573ffffffffffffffffffffffffffffffffffffffff169060200190929190803560ff1690602001909291905050506114ea565b604051808215151515815260200191505060405180910390f35b34801561070157600080fd5b506107246004803603810190808035600019169060200190929190505050611522565b005b34801561073257600080fd5b506107b0600480360381019080803573ffffffffffffffffffffffffffffffffffffffff169060200190929190803573ffffffffffffffffffffffffffffffffffffffff16906020019092919080357bffffffffffffffffffffffffffffffffffffffffffffffffffffffff19169060200190929190505050611745565b604051808215151515815260200191505060405180910390f35b3480156107d657600080fd5b506107df6117a7565b604051808273ffffffffffffffffffffffffffffffffffffffff1673ffffffffffffffffffffffffffffffffffffffff16815260200191505060405180910390f35b34801561082d57600080fd5b5061085a6004803603810190808035600019169060200190929190803590602001909291905050506117cc565b604051808273ffffffffffffffffffffffffffffffffffffffff1673ffffffffffffffffffffffffffffffffffffffff16815260200191505060405180910390f35b3480156108a857600080fd5b50610912600480360381019080803573ffffffffffffffffffffffffffffffffffffffff16906020019092919080357bffffffffffffffffffffffffffffffffffffffffffffffffffffffff19169060200190929190803515159060200190929190505050611819565b005b34801561092057600080fd5b50610961600480360381019080803573ffffffffffffffffffffffffffffffffffffffff1690602001909291908035151590602001909291905050506118fd565b005b34801561096f57600080fd5b506109a4600480360381019080803573ffffffffffffffffffffffffffffffffffffffff169060200190929190505050611902565b60405180826000191660001916815260200191505060405180910390f35b3480156109ce57600080fd5b506109ed6004803603810190808035906020019092919050505061191a565b005b3480156109fb57600080fd5b50610a1a60048036038101908080359060200190929190505050611cad565b005b348015610a2857600080fd5b50610a8060048036038101908080359060200190820180359060200190808060200260200160405190810160405280939291908181526020018383602002808284378201915050505050509192919290505050612040565b60405180826000191660001916815260200191505060405180910390f35b348015610aaa57600080fd5b50610adf600480360381019080803573ffffffffffffffffffffffffffffffffffffffff169060200190929190505050612060565b604051808215151515815260200191505060405180910390f35b348015610b0557600080fd5b50610b3a600480360381019080803573ffffffffffffffffffffffffffffffffffffffff1690602001909291905050506120ba565b6040518082815260200191505060405180910390f35b348015610b5c57600080fd5b50610b656120d2565b604051808273ffffffffffffffffffffffffffffffffffffffff1673ffffffffffffffffffffffffffffffffffffffff16815260200191505060405180910390f35b600b60009054906101000a900473ffffffffffffffffffffffffffffffffffffffff1681565b6000600360008373ffffffffffffffffffffffffffffffffffffffff1673ffffffffffffffffffffffffffffffffffffffff168152602001908152602001600020549050919050565b600080fd5b600a60009054906101000a900473ffffffffffffffffffffffffffffffffffffffff1681565b6000600460008473ffffffffffffffffffffffffffffffffffffffff1673ffffffffffffffffffffffffffffffffffffffff1681526020019081526020016000206000837bffffffffffffffffffffffffffffffffffffffffffffffffffffffff19167bffffffffffffffffffffffffffffffffffffffffffffffffffffffff1916815260200190815260200160002054905092915050565b6000600560008473ffffffffffffffffffffffffffffffffffffffff1673ffffffffffffffffffffffffffffffffffffffff1681526020019081526020016000206000837bffffffffffffffffffffffffffffffffffffffffffffffffffffffff19167bffffffffffffffffffffffffffffffffffffffffffffffffffffffff1916815260200190815260200160002060009054906101000a900460ff16905092915050565b600d5481565b600080600435915060243590506000357fffffffff00000000000000000000000000000000000000000000000000000000167bffffffffffffffffffffffffffffffffffffffffffffffffffffffff19167f644843f351d3fba4abcd60109eaff9f54bac8fb8ccf0bab941009c21df21cf3133848434600036604051808773ffffffffffffffffffffffffffffffffffffffff1673ffffffffffffffffffffffffffffffffffffffff16815260200186600019166000191681526020018560001916600019168152602001848152602001806020018281038252848482818152602001925080828437820191505097505050505050505060405180910390a260086000600c60009054906101000a900473ffffffffffffffffffffffffffffffffffffffff1673ffffffffffffffffffffffffffffffffffffffff1673ffffffffffffffffffffffffffffffffffffffff16815260200190815260200160002054600860008573ffffffffffffffffffffffffffffffffffffffff1673ffffffffffffffffffffffffffffffffffffffff16815260200190815260200160002054111515610f3357600080fd5b82600c60006101000a81548173ffffffffffffffffffffffffffffffffffffffff021916908373ffffffffffffffffffffffffffffffffffffffff160217905550505050565b600080600080600435915060243590506000357fffffffff00000000000000000000000000000000000000000000000000000000167bffffffffffffffffffffffffffffffffffffffffffffffffffffffff19167f644843f351d3fba4abcd60109eaff9f54bac8fb8ccf0bab941009c21df21cf3133848434600036604051808773ffffffffffffffffffffffffffffffffffffffff1673ffffffffffffffffffffffffffffffffffffffff16815260200186600019166000191681526020018560001916600019168152602001848152602001806020018281038252848482818152602001925080828437820191505097505050505050505060405180910390a2600d5485511115151561108d57600080fd5b611096856120f8565b8460405180828051906020019060200280838360005b838110156110c75780820151818401526020810190506110ac565b505050509050019150506040518091039020925084600660008560001916600019168152602001908152602001600020908051906020019061110a92919061270e565b5082600019167f4f0892983790f53eea39a7a496f6cb40e8811b313871337b6a761efc6c67bb1f60405160405180910390a2829350505050919050565b60086020528060005260406000206000915090505481565b600080611190336000357fffffffff00000000000000000000000000000000000000000000000000000000166121b0565b151561119b57600080fd5b600360008673ffffffffffffffffffffffffffffffffffffffff1673ffffffffffffffffffffffffffffffffffffffff1681526020019081526020016000205491508360ff1660020a6001029050821561123e57808217600360008773ffffffffffffffffffffffffffffffffffffffff1673ffffffffffffffffffffffffffffffffffffffff1681526020019081526020016000208160001916905550611291565b61124781612427565b8216600360008773ffffffffffffffffffffffffffffffffffffffff1673ffffffffffffffffffffffffffffffffffffffff16815260200190815260200160002081600019169055505b5050505050565b600080fd5b6000806112ce336000357fffffffff00000000000000000000000000000000000000000000000000000000166121b0565b15156112d957600080fd5b600460008673ffffffffffffffffffffffffffffffffffffffff1673ffffffffffffffffffffffffffffffffffffffff1681526020019081526020016000206000857bffffffffffffffffffffffffffffffffffffffffffffffffffffffff19167bffffffffffffffffffffffffffffffffffffffffffffffffffffffff191681526020019081526020016000205491508560ff1660020a6001029050821561141a57808217600460008773ffffffffffffffffffffffffffffffffffffffff1673ffffffffffffffffffffffffffffffffffffffff1681526020019081526020016000206000867bffffffffffffffffffffffffffffffffffffffffffffffffffffffff19167bffffffffffffffffffffffffffffffffffffffffffffffffffffffff1916815260200190815260200160002081600019169055506114bc565b61142381612427565b8216600460008773ffffffffffffffffffffffffffffffffffffffff1673ffffffffffffffffffffffffffffffffffffffff1681526020019081526020016000206000867bffffffffffffffffffffffffffffffffffffffffffffffffffffffff19167bffffffffffffffffffffffffffffffffffffffffffffffffffffffff1916815260200190815260200160002081600019169055505b505050505050565b600160009054906101000a900473ffffffffffffffffffffffffffffffffffffffff1681565b60008060006114f885610bcd565b91508360ff1660020a60010290508082166000191660006001026000191614159250505092915050565b6000806000600435915060243590506000357fffffffff00000000000000000000000000000000000000000000000000000000167bffffffffffffffffffffffffffffffffffffffffffffffffffffffff19167f644843f351d3fba4abcd60109eaff9f54bac8fb8ccf0bab941009c21df21cf3133848434600036604051808773ffffffffffffffffffffffffffffffffffffffff1673ffffffffffffffffffffffffffffffffffffffff16815260200186600019166000191681526020018560001916600019168152602001848152602001806020018281038252848482818152602001925080828437820191505097505050505050505060405180910390a2600960003373ffffffffffffffffffffffffffffffffffffffff1673ffffffffffffffffffffffffffffffffffffffff1681526020019081526020016000205492506116ae83600760003373ffffffffffffffffffffffffffffffffffffffff1673ffffffffffffffffffffffffffffffffffffffff16815260200190815260200160002054612456565b83600760003373ffffffffffffffffffffffffffffffffffffffff1673ffffffffffffffffffffffffffffffffffffffff168152602001908152602001600020816000191690555061173f83600760003373ffffffffffffffffffffffffffffffffffffffff1673ffffffffffffffffffffffffffffffffffffffff16815260200190815260200160002054612596565b50505050565b600080600061175386612060565b8061176457506117638585610cda565b5b15611772576001925061179e565b61177b86610bcd565b91506117878585610c41565b905080821660001916600060010260001916141592505b50509392505050565b6000809054906101000a900473ffffffffffffffffffffffffffffffffffffffff1681565b6006602052816000526040600020818154811015156117e757fe5b906000526020600020016000915091509054906101000a900473ffffffffffffffffffffffffffffffffffffffff1681565b611847336000357fffffffff00000000000000000000000000000000000000000000000000000000166121b0565b151561185257600080fd5b80600560008573ffffffffffffffffffffffffffffffffffffffff1673ffffffffffffffffffffffffffffffffffffffff1681526020019081526020016000206000847bffffffffffffffffffffffffffffffffffffffffffffffffffffffff19167bffffffffffffffffffffffffffffffffffffffffffffffffffffffff1916815260200190815260200160002060006101000a81548160ff021916908315150217905550505050565b600080fd5b60076020528060005260406000206000915090505481565b600080600435915060243590506000357fffffffff00000000000000000000000000000000000000000000000000000000167bffffffffffffffffffffffffffffffffffffffffffffffffffffffff19167f644843f351d3fba4abcd60109eaff9f54bac8fb8ccf0bab941009c21df21cf3133848434600036604051808773ffffffffffffffffffffffffffffffffffffffff1673ffffffffffffffffffffffffffffffffffffffff16815260200186600019166000191681526020018560001916600019168152602001848152602001806020018281038252848482818152602001925080828437820191505097505050505050505060405180910390a2611a62600960003373ffffffffffffffffffffffffffffffffffffffff1673ffffffffffffffffffffffffffffffffffffffff16815260200190815260200160002054846126d6565b600960003373ffffffffffffffffffffffffffffffffffffffff1673ffffffffffffffffffffffffffffffffffffffff16815260200190815260200160002081905550611aee83600760003373ffffffffffffffffffffffffffffffffffffffff1673ffffffffffffffffffffffffffffffffffffffff16815260200190815260200160002054612456565b600b60009054906101000a900473ffffffffffffffffffffffffffffffffffffffff1673ffffffffffffffffffffffffffffffffffffffff16639dc29fac33856040518363ffffffff167c0100000000000000000000000000000000000000000000000000000000028152600401808373ffffffffffffffffffffffffffffffffffffffff1673ffffffffffffffffffffffffffffffffffffffff16815260200182815260200192505050600060405180830381600087803b158015611bb357600080fd5b505af1158015611bc7573d6000803e3d6000fd5b50505050600a60009054906101000a900473ffffffffffffffffffffffffffffffffffffffff1673ffffffffffffffffffffffffffffffffffffffff1663b753a98c33856040518363ffffffff167c0100000000000000000000000000000000000000000000000000000000028152600401808373ffffffffffffffffffffffffffffffffffffffff1673ffffffffffffffffffffffffffffffffffffffff16815260200182815260200192505050600060405180830381600087803b158015611c9057600080fd5b505af1158015611ca4573d6000803e3d6000fd5b50505050505050565b600080600435915060243590506000357fffffffff00000000000000000000000000000000000000000000000000000000167bffffffffffffffffffffffffffffffffffffffffffffffffffffffff19167f644843f351d3fba4abcd60109eaff9f54bac8fb8ccf0bab941009c21df21cf3133848434600036604051808773ffffffffffffffffffffffffffffffffffffffff1673ffffffffffffffffffffffffffffffffffffffff16815260200186600019166000191681526020018560001916600019168152602001848152602001806020018281038252848482818152602001925080828437820191505097505050505050505060405180910390a2600a60009054906101000a900473ffffffffffffffffffffffffffffffffffffffff1673ffffffffffffffffffffffffffffffffffffffff1663f2d5d56b33856040518363ffffffff167c0100000000000000000000000000000000000000000000000000000000028152600401808373ffffffffffffffffffffffffffffffffffffffff1673ffffffffffffffffffffffffffffffffffffffff16815260200182815260200192505050600060405180830381600087803b158015611e7157600080fd5b505af1158015611e85573d6000803e3d6000fd5b50505050600b60009054906101000a900473ffffffffffffffffffffffffffffffffffffffff1673ffffffffffffffffffffffffffffffffffffffff166340c10f1933856040518363ffffffff167c0100000000000000000000000000000000000000000000000000000000028152600401808373ffffffffffffffffffffffffffffffffffffffff1673ffffffffffffffffffffffffffffffffffffffff16815260200182815260200192505050600060405180830381600087803b158015611f4e57600080fd5b505af1158015611f62573d6000803e3d6000fd5b50505050611faf600960003373ffffffffffffffffffffffffffffffffffffffff1673ffffffffffffffffffffffffffffffffffffffff16815260200190815260200160002054846126f2565b600960003373ffffffffffffffffffffffffffffffffffffffff1673ffffffffffffffffffffffffffffffffffffffff1681526020019081526020016000208190555061203b83600760003373ffffffffffffffffffffffffffffffffffffffff1673ffffffffffffffffffffffffffffffffffffffff16815260200190815260200160002054612596565b505050565b60008061204c83610f79565b905061205781611522565b80915050919050565b6000600c60009054906101000a900473ffffffffffffffffffffffffffffffffffffffff1673ffffffffffffffffffffffffffffffffffffffff168273ffffffffffffffffffffffffffffffffffffffff16149050919050565b60096020528060005260406000206000915090505481565b600c60009054906101000a900473ffffffffffffffffffffffffffffffffffffffff1681565b6000808251148061210a575060018251145b15612114576121ac565b600090505b60018251038110156121ab57816001820181518110151561213657fe5b9060200190602002015173ffffffffffffffffffffffffffffffffffffffff1660010260019004828281518110151561216b57fe5b9060200190602002015173ffffffffffffffffffffffffffffffffffffffff166001026001900410151561219e57600080fd5b8080600101915050612119565b5b5050565b60003073ffffffffffffffffffffffffffffffffffffffff168373ffffffffffffffffffffffffffffffffffffffff1614156121ef5760019050612421565b600160009054906101000a900473ffffffffffffffffffffffffffffffffffffffff1673ffffffffffffffffffffffffffffffffffffffff168373ffffffffffffffffffffffffffffffffffffffff16141561224e5760019050612421565b600073ffffffffffffffffffffffffffffffffffffffff166000809054906101000a900473ffffffffffffffffffffffffffffffffffffffff1673ffffffffffffffffffffffffffffffffffffffff1614156122ad5760009050612421565b6000809054906101000a900473ffffffffffffffffffffffffffffffffffffffff1673ffffffffffffffffffffffffffffffffffffffff1663b70096138430856040518463ffffffff167c0100000000000000000000000000000000000000000000000000000000028152600401808473ffffffffffffffffffffffffffffffffffffffff1673ffffffffffffffffffffffffffffffffffffffff1681526020018373ffffffffffffffffffffffffffffffffffffffff1673ffffffffffffffffffffffffffffffffffffffff168152602001827bffffffffffffffffffffffffffffffffffffffffffffffffffffffff19167bffffffffffffffffffffffffffffffffffffffffffffffffffffffff191681526020019350505050602060405180830381600087803b1580156123e357600080fd5b505af11580156123f7573d6000803e3d6000fd5b505050506040513d602081101561240d57600080fd5b810190808051906020019092919050505090505b92915050565b60007fffffffffffffffffffffffffffffffffffffffffffffffffffffffffffffffff60010282189050919050565b6000806006600084600019166000191681526020019081526020016000209150600090505b81805490508110156125905761250860086000848481548110151561249c57fe5b9060005260206000200160009054906101000a900473ffffffffffffffffffffffffffffffffffffffff1673ffffffffffffffffffffffffffffffffffffffff1673ffffffffffffffffffffffffffffffffffffffff16815260200190815260200160002054856126d6565b60086000848481548110151561251a57fe5b9060005260206000200160009054906101000a900473ffffffffffffffffffffffffffffffffffffffff1673ffffffffffffffffffffffffffffffffffffffff1673ffffffffffffffffffffffffffffffffffffffff16815260200190815260200160002081905550808060010191505061247b565b50505050565b6000806006600084600019166000191681526020019081526020016000209150600090505b81805490508110156126d0576126486008600084848154811015156125dc57fe5b9060005260206000200160009054906101000a900473ffffffffffffffffffffffffffffffffffffffff1673ffffffffffffffffffffffffffffffffffffffff1673ffffffffffffffffffffffffffffffffffffffff16815260200190815260200160002054856126f2565b60086000848481548110151561265a57fe5b9060005260206000200160009054906101000a900473ffffffffffffffffffffffffffffffffffffffff1673ffffffffffffffffffffffffffffffffffffffff1673ffffffffffffffffffffffffffffffffffffffff1681526020019081526020016000208190555080806001019150506125bb565b50505050565b600082828403915081111515156126ec57600080fd5b92915050565b6000828284019150811015151561270857600080fd5b92915050565b828054828255906000526020600020908101928215612787579160200282015b828111156127865782518260006101000a81548173ffffffffffffffffffffffffffffffffffffffff021916908373ffffffffffffffffffffffffffffffffffffffff1602179055509160200191906001019061272e565b5b5090506127949190612798565b5090565b6127d891905b808211156127d457600081816101000a81549073ffffffffffffffffffffffffffffffffffffffff02191690555060010161279e565b5090565b905600a165627a7a7230582007127e2ec64fdcecfcbe79f90c7e3a6903112c7dd7079a2d9172e0d4b34e31970029a165627a7a72305820da1c5e2ae338a7de1f3ad11b501e969ac2e116146634f064bd2e4dc36acff8b90029",
  "source": "// chief.sol - select an authority by consensus\n\n// Copyright (C) 2017  DappHub, LLC\n\n// This program is free software: you can redistribute it and/or modify\n// it under the terms of the GNU General Public License as published by\n// the Free Software Foundation, either version 3 of the License, or\n// (at your option) any later version.\n\n// This program is distributed in the hope that it will be useful,\n// but WITHOUT ANY WARRANTY; without even the implied warranty of\n// MERCHANTABILITY or FITNESS FOR A PARTICULAR PURPOSE.  See the\n// GNU General Public License for more details.\n\n// You should have received a copy of the GNU General Public License\n// along with this program.  If not, see <http://www.gnu.org/licenses/>.\n\npragma solidity ^0.4.17;\n\nimport './token.sol';\nimport './roles.sol';\nimport './thing.sol';\n\n// The right way to use this contract is probably to mix it with some kind\n// of `DSAuthority`, like with `ds-roles`.\n//   SEE DSChief\ncontract DSChiefApprovals is DSThing {\n    mapping(bytes32=>address[]) public slates;\n    mapping(address=>bytes32) public votes;\n    mapping(address=>uint256) public approvals;\n    mapping(address=>uint256) public deposits;\n    DSToken public GOV; // voting token that gets locked up\n    DSToken public IOU; // non-voting representation of a token, for e.g. secondary voting mechanisms\n    address public hat; // the chieftain's hat\n\n    uint256 public MAX_YAYS;\n\n    event Etch(bytes32 indexed slate);\n\n    // IOU constructed outside this contract reduces deployment costs significantly\n    // lock/free/vote are quite sensitive to token invariants. Caution is advised.\n    function DSChiefApprovals(DSToken GOV_, DSToken IOU_, uint MAX_YAYS_) public\n    {\n        GOV = GOV_;\n        IOU = IOU_;\n        MAX_YAYS = MAX_YAYS_;\n    }\n\n    function lock(uint wad)\n        public\n        note\n    {\n        GOV.pull(msg.sender, wad);\n        IOU.mint(msg.sender, wad);\n        deposits[msg.sender] = add(deposits[msg.sender], wad);\n        addWeight(wad, votes[msg.sender]);\n    }\n\n    function free(uint wad)\n        public\n        note\n    {\n        deposits[msg.sender] = sub(deposits[msg.sender], wad);\n        subWeight(wad, votes[msg.sender]);\n        IOU.burn(msg.sender, wad);\n        GOV.push(msg.sender, wad);\n    }\n\n    function etch(address[] yays)\n        public\n        note\n        returns (bytes32 slate)\n    {\n        require( yays.length <= MAX_YAYS );\n        requireByteOrderedSet(yays);\n\n        bytes32 hash = keccak256(yays);\n        slates[hash] = yays;\n        Etch(hash);\n        return hash;\n    }\n\n    function vote(address[] yays) public returns (bytes32)\n        // note  both sub-calls note\n    {\n        var slate = etch(yays);\n        vote(slate);\n        return slate;\n    }\n\n    function vote(bytes32 slate)\n        public\n        note\n    {\n        uint weight = deposits[msg.sender];\n        subWeight(weight, votes[msg.sender]);\n        votes[msg.sender] = slate;\n        addWeight(weight, votes[msg.sender]);\n    }\n\n    // like `drop`/`swap` except simply \"elect this address if it is higher than current hat\"\n    function lift(address whom)\n        public\n        note\n    {\n        require(approvals[whom] > approvals[hat]);\n        hat = whom;\n    }\n\n    function addWeight(uint weight, bytes32 slate)\n        internal\n    {\n        var yays = slates[slate];\n        for( uint i = 0; i < yays.length; i++) {\n            approvals[yays[i]] = add(approvals[yays[i]], weight);\n        }\n    }\n\n    function subWeight(uint weight, bytes32 slate)\n        internal\n    {\n        var yays = slates[slate];\n        for( uint i = 0; i < yays.length; i++) {\n            approvals[yays[i]] = sub(approvals[yays[i]], weight);\n        }\n    }\n\n    // Throws unless the array of addresses is a ordered set.\n    function requireByteOrderedSet(address[] yays)\n        internal\n        pure\n    {\n        if( yays.length == 0 || yays.length == 1 ) {\n            return;\n        }\n        for( uint i = 0; i < yays.length - 1; i++ ) {\n            // strict inequality ensures both ordering and uniqueness\n            require(uint(bytes32(yays[i])) < uint256(bytes32(yays[i+1])));\n        }\n    }\n}\n\n\n// `hat` address is unique root user (has every role) and the\n// unique owner of role 0 (typically 'sys' or 'internal')\ncontract DSChief is DSRoles, DSChiefApprovals {\n\n    function DSChief(DSToken GOV, DSToken IOU, uint MAX_YAYS)\n             DSChiefApprovals (GOV, IOU, MAX_YAYS)\n        public\n    {\n        authority = this;\n        owner = 0;\n    }\n\n    function setOwner(address owner_) public {\n        owner_;\n        revert();\n    }\n\n    function setAuthority(DSAuthority authority_) public {\n        authority_;\n        revert();\n    }\n\n    function isUserRoot(address who)\n        public\n        constant\n        returns (bool)\n    {\n        return (who == hat);\n    }\n    function setRootUser(address who, bool enabled) public {\n        who; enabled;\n        revert();\n    }\n}\n\ncontract DSChiefFab {\n    function newChief(DSToken gov, uint MAX_YAYS) public returns (DSChief chief) {\n        DSToken iou = new DSToken('IOU');\n        chief = new DSChief(gov, iou, MAX_YAYS);\n        iou.setOwner(chief);\n    }\n}\n",
  "sourcePath": "/home/binyu/Desktop/Oikon.cash/vote-proxy/contracts/chief.sol",
  "compiler": {
    "name": "solc",
    "version": "0.4.24-develop.2018.8.28+commit.3ba0cdec.mod.Emscripten.clang"
  },
  "schemaVersion": "2.0.1",
  "updatedAt": "2020-01-31T20:12:55.893Z"
}