{
  "contractName": "DSValue",
  "abi": [
    {
      "constant": false,
      "inputs": [
        {
          "name": "owner_",
          "type": "address"
        }
      ],
      "name": "setOwner",
      "outputs": [],
      "payable": false,
      "stateMutability": "nonpayable",
      "type": "function"
    },
    {
      "constant": false,
      "inputs": [
        {
          "name": "authority_",
          "type": "address"
        }
      ],
      "name": "setAuthority",
      "outputs": [],
      "payable": false,
      "stateMutability": "nonpayable",
      "type": "function"
    },
    {
      "constant": true,
      "inputs": [],
      "name": "owner",
      "outputs": [
        {
          "name": "",
          "type": "address"
        }
      ],
      "payable": false,
      "stateMutability": "view",
      "type": "function"
    },
    {
      "constant": true,
      "inputs": [],
      "name": "authority",
      "outputs": [
        {
          "name": "",
          "type": "address"
        }
      ],
      "payable": false,
      "stateMutability": "view",
      "type": "function"
    },
    {
      "anonymous": false,
      "inputs": [
        {
          "indexed": true,
          "name": "sig",
          "type": "bytes4"
        },
        {
          "indexed": false,
          "name": "guy",
          "type": "address"
        },
        {
          "indexed": false,
          "name": "foo",
          "type": "bytes32"
        },
        {
          "indexed": false,
          "name": "bar",
          "type": "bytes32"
        },
        {
          "indexed": false,
          "name": "wad",
          "type": "uint256"
        },
        {
          "indexed": false,
          "name": "fax",
          "type": "bytes"
        }
      ],
      "name": "LogNote",
      "type": "event"
    },
    {
      "anonymous": false,
      "inputs": [
        {
          "indexed": true,
          "name": "authority",
          "type": "address"
        }
      ],
      "name": "LogSetAuthority",
      "type": "event"
    },
    {
      "anonymous": false,
      "inputs": [
        {
          "indexed": true,
          "name": "owner",
          "type": "address"
        }
      ],
      "name": "LogSetOwner",
      "type": "event"
    },
    {
      "constant": true,
      "inputs": [],
      "name": "peek",
      "outputs": [
        {
          "name": "",
          "type": "bytes32"
        },
        {
          "name": "",
          "type": "bool"
        }
      ],
      "payable": false,
      "stateMutability": "view",
      "type": "function"
    },
    {
      "constant": true,
      "inputs": [],
      "name": "read",
      "outputs": [
        {
          "name": "",
          "type": "bytes32"
        }
      ],
      "payable": false,
      "stateMutability": "view",
      "type": "function"
    },
    {
      "constant": false,
      "inputs": [
        {
          "name": "wut",
          "type": "bytes32"
        }
      ],
      "name": "poke",
      "outputs": [],
      "payable": false,
      "stateMutability": "nonpayable",
      "type": "function"
    },
    {
      "constant": false,
      "inputs": [],
      "name": "void",
      "outputs": [],
      "payable": false,
      "stateMutability": "nonpayable",
      "type": "function"
    }
  ],
  "bytecode": "0x608060405233600160006101000a81548173ffffffffffffffffffffffffffffffffffffffff021916908373ffffffffffffffffffffffffffffffffffffffff1602179055503373ffffffffffffffffffffffffffffffffffffffff167fce241d7ca1f669fee44b6fc00b8eba2df3bb514eed0f6f668f8f89096e81ed9460405160405180910390a2610a29806100976000396000f30060806040526004361061008e576000357c0100000000000000000000000000000000000000000000000000000000900463ffffffff16806313af4035146100935780631504460f146100d657806357de26a41461010757806359e02dd71461013a5780637a9e5e4b146101785780638da5cb5b146101bb578063ac4c25b214610212578063bf7e214f14610229575b600080fd5b34801561009f57600080fd5b506100d4600480360381019080803573ffffffffffffffffffffffffffffffffffffffff169060200190929190505050610280565b005b3480156100e257600080fd5b506101056004803603810190808035600019169060200190929190505050610362565b005b34801561011357600080fd5b5061011c6104c4565b60405180826000191660001916815260200191505060405180910390f35b34801561014657600080fd5b5061014f6104e6565b604051808360001916600019168152602001821515151581526020019250505060405180910390f35b34801561018457600080fd5b506101b9600480360381019080803573ffffffffffffffffffffffffffffffffffffffff169060200190929190505050610504565b005b3480156101c757600080fd5b506101d06105e4565b604051808273ffffffffffffffffffffffffffffffffffffffff1673ffffffffffffffffffffffffffffffffffffffff16815260200191505060405180910390f35b34801561021e57600080fd5b5061022761060a565b005b34801561023557600080fd5b5061023e610761565b604051808273ffffffffffffffffffffffffffffffffffffffff1673ffffffffffffffffffffffffffffffffffffffff16815260200191505060405180910390f35b6102ae336000357fffffffff0000000000000000000000000000000000000000000000000000000016610786565b15156102b957600080fd5b80600160006101000a81548173ffffffffffffffffffffffffffffffffffffffff021916908373ffffffffffffffffffffffffffffffffffffffff160217905550600160009054906101000a900473ffffffffffffffffffffffffffffffffffffffff1673ffffffffffffffffffffffffffffffffffffffff167fce241d7ca1f669fee44b6fc00b8eba2df3bb514eed0f6f668f8f89096e81ed9460405160405180910390a250565b600080600435915060243590506000357fffffffff00000000000000000000000000000000000000000000000000000000167bffffffffffffffffffffffffffffffffffffffffffffffffffffffff19167f644843f351d3fba4abcd60109eaff9f54bac8fb8ccf0bab941009c21df21cf3133848434600036604051808773ffffffffffffffffffffffffffffffffffffffff1673ffffffffffffffffffffffffffffffffffffffff16815260200186600019166000191681526020018560001916600019168152602001848152602001806020018281038252848482818152602001925080828437820191505097505050505050505060405180910390a261048f336000357fffffffff0000000000000000000000000000000000000000000000000000000016610786565b151561049a57600080fd5b826002816000191690555060018060146101000a81548160ff021916908315150217905550505050565b60008060006104d16104e6565b915091508015156104de57fe5b819250505090565b600080600254600160149054906101000a900460ff16915091509091565b610532336000357fffffffff0000000000000000000000000000000000000000000000000000000016610786565b151561053d57600080fd5b806000806101000a81548173ffffffffffffffffffffffffffffffffffffffff021916908373ffffffffffffffffffffffffffffffffffffffff1602179055506000809054906101000a900473ffffffffffffffffffffffffffffffffffffffff1673ffffffffffffffffffffffffffffffffffffffff167f1abebea81bfa2637f28358c371278fb15ede7ea8dd28d2e03b112ff6d936ada460405160405180910390a250565b600160009054906101000a900473ffffffffffffffffffffffffffffffffffffffff1681565b600080600435915060243590506000357fffffffff00000000000000000000000000000000000000000000000000000000167bffffffffffffffffffffffffffffffffffffffffffffffffffffffff19167f644843f351d3fba4abcd60109eaff9f54bac8fb8ccf0bab941009c21df21cf3133848434600036604051808773ffffffffffffffffffffffffffffffffffffffff1673ffffffffffffffffffffffffffffffffffffffff16815260200186600019166000191681526020018560001916600019168152602001848152602001806020018281038252848482818152602001925080828437820191505097505050505050505060405180910390a2610737336000357fffffffff0000000000000000000000000000000000000000000000000000000016610786565b151561074257600080fd5b6000600160146101000a81548160ff0219169083151502179055505050565b6000809054906101000a900473ffffffffffffffffffffffffffffffffffffffff1681565b60003073ffffffffffffffffffffffffffffffffffffffff168373ffffffffffffffffffffffffffffffffffffffff1614156107c557600190506109f7565b600160009054906101000a900473ffffffffffffffffffffffffffffffffffffffff1673ffffffffffffffffffffffffffffffffffffffff168373ffffffffffffffffffffffffffffffffffffffff16141561082457600190506109f7565b600073ffffffffffffffffffffffffffffffffffffffff166000809054906101000a900473ffffffffffffffffffffffffffffffffffffffff1673ffffffffffffffffffffffffffffffffffffffff16141561088357600090506109f7565b6000809054906101000a900473ffffffffffffffffffffffffffffffffffffffff1673ffffffffffffffffffffffffffffffffffffffff1663b70096138430856040518463ffffffff167c0100000000000000000000000000000000000000000000000000000000028152600401808473ffffffffffffffffffffffffffffffffffffffff1673ffffffffffffffffffffffffffffffffffffffff1681526020018373ffffffffffffffffffffffffffffffffffffffff1673ffffffffffffffffffffffffffffffffffffffff168152602001827bffffffffffffffffffffffffffffffffffffffffffffffffffffffff19167bffffffffffffffffffffffffffffffffffffffffffffffffffffffff191681526020019350505050602060405180830381600087803b1580156109b957600080fd5b505af11580156109cd573d6000803e3d6000fd5b505050506040513d60208110156109e357600080fd5b810190808051906020019092919050505090505b929150505600a165627a7a72305820f5f3a49a50b202638217912efb5379aad1098da5badb58ce334566f9ad808ca10029",
  "source": "/// value.sol - a value is a simple thing, it can be get and set\n\n// Copyright (C) 2017  DappHub, LLC\n\n// This program is free software: you can redistribute it and/or modify\n// it under the terms of the GNU General Public License as published by\n// the Free Software Foundation, either version 3 of the License, or\n// (at your option) any later version.\n\n// This program is distributed in the hope that it will be useful,\n// but WITHOUT ANY WARRANTY; without even the implied warranty of\n// MERCHANTABILITY or FITNESS FOR A PARTICULAR PURPOSE.  See the\n// GNU General Public License for more details.\n\n// You should have received a copy of the GNU General Public License\n// along with this program.  If not, see <http://www.gnu.org/licenses/>.\n\npragma solidity ^0.4.13;\n\nimport './thing.sol';\n\ncontract DSValue is DSThing {\n    bool    has;\n    bytes32 val;\n    function peek() public view returns (bytes32, bool) {\n        return (val,has);\n    }\n    function read() public view returns (bytes32) {\n        var (wut, haz) = peek();\n        assert(haz);\n        return wut;\n    }\n    function poke(bytes32 wut) public note auth {\n        val = wut;\n        has = true;\n    }\n    function void() public note auth {  // unset the value\n        has = false;\n    }\n}\n",
  "sourcePath": "/home/binyu/Desktop/Oikon.cash/vote-proxy/contracts/value.sol",
  "compiler": {
    "name": "solc",
    "version": "0.4.24-develop.2018.8.28+commit.3ba0cdec.mod.Emscripten.clang"
  },
  "schemaVersion": "2.0.1",
  "updatedAt": "2020-01-24T23:00:29.131Z"
}