{
  "contractName": "VoteProxyFactory",
  "abi": [
    {
      "constant": true,
      "inputs": [
        {
          "name": "",
          "type": "address"
        }
      ],
      "name": "registry",
      "outputs": [
        {
          "name": "",
          "type": "address"
        }
      ],
      "payable": false,
      "stateMutability": "view",
      "type": "function"
    },
    {
      "constant": true,
      "inputs": [
        {
          "name": "",
          "type": "address"
        }
      ],
      "name": "hotMap",
      "outputs": [
        {
          "name": "",
          "type": "address"
        }
      ],
      "payable": false,
      "stateMutability": "view",
      "type": "function"
    },
    {
      "constant": true,
      "inputs": [
        {
          "name": "",
          "type": "address"
        }
      ],
      "name": "linkRequests",
      "outputs": [
        {
          "name": "",
          "type": "address"
        }
      ],
      "payable": false,
      "stateMutability": "view",
      "type": "function"
    },
    {
      "constant": true,
      "inputs": [
        {
          "name": "",
          "type": "address"
        }
      ],
      "name": "coldMap",
      "outputs": [
        {
          "name": "",
          "type": "address"
        }
      ],
      "payable": false,
      "stateMutability": "view",
      "type": "function"
    },
    {
      "constant": true,
      "inputs": [],
      "name": "chief",
      "outputs": [
        {
          "name": "",
          "type": "address"
        }
      ],
      "payable": false,
      "stateMutability": "view",
      "type": "function"
    },
    {
      "inputs": [
        {
          "name": "chief_",
          "type": "address"
        }
      ],
      "payable": false,
      "stateMutability": "nonpayable",
      "type": "constructor"
    },
    {
      "anonymous": false,
      "inputs": [
        {
          "indexed": true,
          "name": "cold",
          "type": "address"
        },
        {
          "indexed": true,
          "name": "hot",
          "type": "address"
        }
      ],
      "name": "LinkRequested",
      "type": "event"
    },
    {
      "anonymous": false,
      "inputs": [
        {
          "indexed": true,
          "name": "cold",
          "type": "address"
        },
        {
          "indexed": true,
          "name": "hot",
          "type": "address"
        },
        {
          "indexed": true,
          "name": "voteProxy",
          "type": "address"
        }
      ],
      "name": "LinkConfirmed",
      "type": "event"
    },
    {
      "constant": true,
      "inputs": [
        {
          "name": "guy",
          "type": "address"
        }
      ],
      "name": "hasProxy",
      "outputs": [
        {
          "name": "",
          "type": "bool"
        }
      ],
      "payable": false,
      "stateMutability": "view",
      "type": "function"
    },
    {
      "constant": false,
      "inputs": [
        {
          "name": "hot",
          "type": "address"
        }
      ],
      "name": "initiateLink",
      "outputs": [],
      "payable": false,
      "stateMutability": "nonpayable",
      "type": "function"
    },
    {
      "constant": false,
      "inputs": [
        {
          "name": "cold",
          "type": "address"
        },
        {
          "name": "_proxy",
          "type": "address"
        }
      ],
      "name": "approveLink",
      "outputs": [
        {
          "name": "voteProxy",
          "type": "address"
        }
      ],
      "payable": false,
      "stateMutability": "nonpayable",
      "type": "function"
    },
    {
      "constant": false,
      "inputs": [],
      "name": "breakLink",
      "outputs": [],
      "payable": false,
      "stateMutability": "nonpayable",
      "type": "function"
    },
    {
      "constant": false,
      "inputs": [
        {
          "name": "proxy",
          "type": "address"
        }
      ],
      "name": "linkSelf",
      "outputs": [
        {
          "name": "voteProxy",
          "type": "address"
        }
      ],
      "payable": false,
      "stateMutability": "nonpayable",
      "type": "function"
    }
  ],
  "bytecode": "0x608060405234801561001057600080fd5b5060405160208061161583398101806040528101908080519060200190929190505050806000806101000a81548173ffffffffffffffffffffffffffffffffffffffff021916908373ffffffffffffffffffffffffffffffffffffffff16021790555050611592806100836000396000f3006080604052600436106100a4576000357c0100000000000000000000000000000000000000000000000000000000900463ffffffff168063038defd7146100a95780632d04ebd41461012c5780635ab0bc731461016f5780636ef40889146101ca5780637817ea661461024d57806379b06b83146102d057806388f0167d14610373578063e83447d0146103f6578063f14f4f961461040d578063ffd864d314610490575b600080fd5b3480156100b557600080fd5b506100ea600480360381019080803573ffffffffffffffffffffffffffffffffffffffff1690602001909291905050506104e7565b604051808273ffffffffffffffffffffffffffffffffffffffff1673ffffffffffffffffffffffffffffffffffffffff16815260200191505060405180910390f35b34801561013857600080fd5b5061016d600480360381019080803573ffffffffffffffffffffffffffffffffffffffff16906020019092919050505061051a565b005b34801561017b57600080fd5b506101b0600480360381019080803573ffffffffffffffffffffffffffffffffffffffff16906020019092919050505061073d565b604051808215151515815260200191505060405180910390f35b3480156101d657600080fd5b5061020b600480360381019080803573ffffffffffffffffffffffffffffffffffffffff16906020019092919050505061086c565b604051808273ffffffffffffffffffffffffffffffffffffffff1673ffffffffffffffffffffffffffffffffffffffff16815260200191505060405180910390f35b34801561025957600080fd5b5061028e600480360381019080803573ffffffffffffffffffffffffffffffffffffffff16906020019092919050505061089f565b604051808273ffffffffffffffffffffffffffffffffffffffff1673ffffffffffffffffffffffffffffffffffffffff16815260200191505060405180910390f35b3480156102dc57600080fd5b50610331600480360381019080803573ffffffffffffffffffffffffffffffffffffffff169060200190929190803573ffffffffffffffffffffffffffffffffffffffff1690602001909291905050506108d2565b604051808273ffffffffffffffffffffffffffffffffffffffff1673ffffffffffffffffffffffffffffffffffffffff16815260200191505060405180910390f35b34801561037f57600080fd5b506103b4600480360381019080803573ffffffffffffffffffffffffffffffffffffffff169060200190929190505050610e91565b604051808273ffffffffffffffffffffffffffffffffffffffff1673ffffffffffffffffffffffffffffffffffffffff16815260200191505060405180910390f35b34801561040257600080fd5b5061040b610ead565b005b34801561041957600080fd5b5061044e600480360381019080803573ffffffffffffffffffffffffffffffffffffffff16906020019092919050505061150e565b604051808273ffffffffffffffffffffffffffffffffffffffff1673ffffffffffffffffffffffffffffffffffffffff16815260200191505060405180910390f35b34801561049c57600080fd5b506104a5611541565b604051808273ffffffffffffffffffffffffffffffffffffffff1673ffffffffffffffffffffffffffffffffffffffff16815260200191505060405180910390f35b60036020528060005260406000206000915054906101000a900473ffffffffffffffffffffffffffffffffffffffff1681565b6105233361073d565b1515156105be576040517f08c379a00000000000000000000000000000000000000000000000000000000081526004018080602001828103825260338152602001807f436f6c642077616c6c657420697320616c7265616479206c696e6b656420746f81526020017f20616e6f7468657220566f74652050726f78790000000000000000000000000081525060400191505060405180910390fd5b6105c78161073d565b151515610662576040517f08c379a00000000000000000000000000000000000000000000000000000000081526004018080602001828103825260328152602001807f486f742077616c6c657420697320616c7265616479206c696e6b656420746f2081526020017f616e6f7468657220566f74652050726f7879000000000000000000000000000081525060400191505060405180910390fd5b80600460003373ffffffffffffffffffffffffffffffffffffffff1673ffffffffffffffffffffffffffffffffffffffff16815260200190815260200160002060006101000a81548173ffffffffffffffffffffffffffffffffffffffff021916908373ffffffffffffffffffffffffffffffffffffffff1602179055508073ffffffffffffffffffffffffffffffffffffffff163373ffffffffffffffffffffffffffffffffffffffff167f508cad8883b1f632644173100ee83c013494290baf3ace13ec40588d1aed450560405160405180910390a350565b60008073ffffffffffffffffffffffffffffffffffffffff16600260008473ffffffffffffffffffffffffffffffffffffffff1673ffffffffffffffffffffffffffffffffffffffff16815260200190815260200160002060009054906101000a900473ffffffffffffffffffffffffffffffffffffffff1673ffffffffffffffffffffffffffffffffffffffff161415806108655750600073ffffffffffffffffffffffffffffffffffffffff16600160008473ffffffffffffffffffffffffffffffffffffffff1673ffffffffffffffffffffffffffffffffffffffff16815260200190815260200160002060009054906101000a900473ffffffffffffffffffffffffffffffffffffffff1673ffffffffffffffffffffffffffffffffffffffff1614155b9050919050565b60016020528060005260406000206000915054906101000a900473ffffffffffffffffffffffffffffffffffffffff1681565b60046020528060005260406000206000915054906101000a900473ffffffffffffffffffffffffffffffffffffffff1681565b60003373ffffffffffffffffffffffffffffffffffffffff16600460008573ffffffffffffffffffffffffffffffffffffffff1673ffffffffffffffffffffffffffffffffffffffff16815260200190815260200160002060009054906101000a900473ffffffffffffffffffffffffffffffffffffffff1673ffffffffffffffffffffffffffffffffffffffff161415156109fc576040517f08c379a00000000000000000000000000000000000000000000000000000000081526004018080602001828103825260268152602001807f436f6c642077616c6c6574206d75737420696e6974696174652061206c696e6b81526020017f206669727374000000000000000000000000000000000000000000000000000081525060400191505060405180910390fd5b610a053361073d565b151515610aa0576040517f08c379a00000000000000000000000000000000000000000000000000000000081526004018080602001828103825260328152602001807f486f742077616c6c657420697320616c7265616479206c696e6b656420746f2081526020017f616e6f7468657220566f74652050726f7879000000000000000000000000000081525060400191505060405180910390fd5b8190508073ffffffffffffffffffffffffffffffffffffffff1663dde9c2976040518163ffffffff167c0100000000000000000000000000000000000000000000000000000000028152600401602060405180830381600087803b158015610b0757600080fd5b505af1158015610b1b573d6000803e3d6000fd5b505050506040513d6020811015610b3157600080fd5b8101908080519060200190929190505050600160003373ffffffffffffffffffffffffffffffffffffffff1673ffffffffffffffffffffffffffffffffffffffff16815260200190815260200160002060006101000a81548173ffffffffffffffffffffffffffffffffffffffff021916908373ffffffffffffffffffffffffffffffffffffffff1602179055508073ffffffffffffffffffffffffffffffffffffffff1663578e9dc56040518163ffffffff167c0100000000000000000000000000000000000000000000000000000000028152600401602060405180830381600087803b158015610c2357600080fd5b505af1158015610c37573d6000803e3d6000fd5b505050506040513d6020811015610c4d57600080fd5b8101908080519060200190929190505050600260008573ffffffffffffffffffffffffffffffffffffffff1673ffffffffffffffffffffffffffffffffffffffff16815260200190815260200160002060006101000a81548173ffffffffffffffffffffffffffffffffffffffff021916908373ffffffffffffffffffffffffffffffffffffffff16021790555081600360003373ffffffffffffffffffffffffffffffffffffffff1673ffffffffffffffffffffffffffffffffffffffff16815260200190815260200160002060006101000a81548173ffffffffffffffffffffffffffffffffffffffff021916908373ffffffffffffffffffffffffffffffffffffffff160217905550600460008473ffffffffffffffffffffffffffffffffffffffff1673ffffffffffffffffffffffffffffffffffffffff16815260200190815260200160002060006101000a81549073ffffffffffffffffffffffffffffffffffffffff02191690558073ffffffffffffffffffffffffffffffffffffffff163373ffffffffffffffffffffffffffffffffffffffff16600260008673ffffffffffffffffffffffffffffffffffffffff1673ffffffffffffffffffffffffffffffffffffffff16815260200190815260200160002060009054906101000a900473ffffffffffffffffffffffffffffffffffffffff1673ffffffffffffffffffffffffffffffffffffffff167ff001c2d12c2288935c811b4977748cb3e5e3c485d08a1fb1984023cb2452d46360405160405180910390a492915050565b6000610e9c3361051a565b610ea633836108d2565b9050919050565b6000806000610ebb3361073d565b1515610f55576040517f08c379a00000000000000000000000000000000000000000000000000000000081526004018080602001828103825260228152602001807f4e6f20566f746550726f787920666f756e6420666f7220746869732073656e6481526020017f657200000000000000000000000000000000000000000000000000000000000081525060400191505060405180910390fd5b600073ffffffffffffffffffffffffffffffffffffffff16600260003373ffffffffffffffffffffffffffffffffffffffff1673ffffffffffffffffffffffffffffffffffffffff16815260200190815260200160002060009054906101000a900473ffffffffffffffffffffffffffffffffffffffff1673ffffffffffffffffffffffffffffffffffffffff16141561104e57600160003373ffffffffffffffffffffffffffffffffffffffff1673ffffffffffffffffffffffffffffffffffffffff16815260200190815260200160002060009054906101000a900473ffffffffffffffffffffffffffffffffffffffff166110af565b600260003373ffffffffffffffffffffffffffffffffffffffff1673ffffffffffffffffffffffffffffffffffffffff16815260200190815260200160002060009054906101000a900473ffffffffffffffffffffffffffffffffffffffff165b9250600360003373ffffffffffffffffffffffffffffffffffffffff1673ffffffffffffffffffffffffffffffffffffffff16815260200190815260200160002060009054906101000a900473ffffffffffffffffffffffffffffffffffffffff1673ffffffffffffffffffffffffffffffffffffffff1663578e9dc56040518163ffffffff167c0100000000000000000000000000000000000000000000000000000000028152600401602060405180830381600087803b15801561117457600080fd5b505af1158015611188573d6000803e3d6000fd5b505050506040513d602081101561119e57600080fd5b81019080805190602001909291905050509150600360003373ffffffffffffffffffffffffffffffffffffffff1673ffffffffffffffffffffffffffffffffffffffff16815260200190815260200160002060009054906101000a900473ffffffffffffffffffffffffffffffffffffffff1673ffffffffffffffffffffffffffffffffffffffff1663dde9c2976040518163ffffffff167c0100000000000000000000000000000000000000000000000000000000028152600401602060405180830381600087803b15801561127457600080fd5b505af1158015611288573d6000803e3d6000fd5b505050506040513d602081101561129e57600080fd5b8101908080519060200190929190505050905060008060009054906101000a900473ffffffffffffffffffffffffffffffffffffffff1673ffffffffffffffffffffffffffffffffffffffff1663fc7e286d856040518263ffffffff167c0100000000000000000000000000000000000000000000000000000000028152600401808273ffffffffffffffffffffffffffffffffffffffff1673ffffffffffffffffffffffffffffffffffffffff168152602001915050602060405180830381600087803b15801561136f57600080fd5b505af1158015611383573d6000803e3d6000fd5b505050506040513d602081101561139957600080fd5b8101908080519060200190929190505050141515611445576040517f08c379a00000000000000000000000000000000000000000000000000000000081526004018080602001828103825260288152602001807f566f746550726f7879207374696c6c206861732066756e64732061747461636881526020017f656420746f20697400000000000000000000000000000000000000000000000081525060400191505060405180910390fd5b600260008373ffffffffffffffffffffffffffffffffffffffff1673ffffffffffffffffffffffffffffffffffffffff16815260200190815260200160002060006101000a81549073ffffffffffffffffffffffffffffffffffffffff0219169055600160008273ffffffffffffffffffffffffffffffffffffffff1673ffffffffffffffffffffffffffffffffffffffff16815260200190815260200160002060006101000a81549073ffffffffffffffffffffffffffffffffffffffff0219169055505050565b60026020528060005260406000206000915054906101000a900473ffffffffffffffffffffffffffffffffffffffff1681565b6000809054906101000a900473ffffffffffffffffffffffffffffffffffffffff16815600a165627a7a72305820d18c1c9c7391799133452c890c793eafbd6975cbc5205a2431553d4421210f440029",
  "source": "// VoteProxyFactory - create and keep record of proxy identities\npragma solidity ^0.4.18;\n\nimport \"./VoteProxy.sol\";\n\ncontract ProxyInterface {\n    function hot() public returns (address);\n    function cold() public returns (address);\n    function self() public returns (address);\n}\n\ncontract VoteProxyFactory {\n    DSChief public chief;\n    mapping(address => address) public hotMap;\n    mapping(address => address) public coldMap;\n    mapping(address => address) public registry;   \n    mapping(address => address) public linkRequests;\n\n    event LinkRequested(address indexed cold, address indexed hot);\n    event LinkConfirmed(address indexed cold, address indexed hot, address indexed voteProxy);\n\n    constructor(DSChief chief_) public { chief = chief_; }\n\n    function hasProxy(address guy) public view returns (bool) {\n        return (address(coldMap[guy]) != address(0x0) || address(hotMap[guy]) != address(0x0));\n    }\n\n    function initiateLink(address hot) public {\n        require(!hasProxy(msg.sender), \"Cold wallet is already linked to another Vote Proxy\");\n        require(!hasProxy(hot), \"Hot wallet is already linked to another Vote Proxy\");\n\n        linkRequests[msg.sender] = hot;\n        emit LinkRequested(msg.sender, hot);\n    }\n\n    function approveLink(address cold, address _proxy) public returns (address voteProxy) {\n        require(linkRequests[cold] == msg.sender, \"Cold wallet must initiate a link first\");\n        require(!hasProxy(msg.sender), \"Hot wallet is already linked to another Vote Proxy\");\n\n        voteProxy = _proxy; //new VoteProxy(chief, cold, msg.sender);\n        hotMap[msg.sender] = ProxyInterface(voteProxy).hot();\n        coldMap[cold] = ProxyInterface(voteProxy).cold();\n        registry[msg.sender] = _proxy;\n        \n        delete linkRequests[cold];\n        emit LinkConfirmed(coldMap[cold], msg.sender, voteProxy);\n    }\n\n    function breakLink() public {\n        require(hasProxy(msg.sender), \"No VoteProxy found for this sender\");\n\n        address voteProxy = address(coldMap[msg.sender]) != address(0x0)\n            ? coldMap[msg.sender] : hotMap[msg.sender];\n        address cold = ProxyInterface(registry[msg.sender]).cold();\n        address hot = ProxyInterface(registry[msg.sender]).hot();\n        require(chief.deposits(address(voteProxy)) == 0, \"VoteProxy still has funds attached to it\");\n\n        delete coldMap[cold];\n        delete hotMap[hot];\n    }\n\n    function linkSelf(address proxy) public returns (address voteProxy) {\n        initiateLink(msg.sender);\n        return approveLink(msg.sender, proxy);\n    }\n}\n",
  "sourcePath": "/home/binyu/Desktop/Oikon.cash/vote-proxy/contracts/VoteProxyFactory.sol",
  "compiler": {
    "name": "solc",
    "version": "0.4.24-develop.2018.8.28+commit.3ba0cdec.mod.Emscripten.clang"
  },
  "schemaVersion": "2.0.1",
  "updatedAt": "2020-01-31T20:12:55.866Z"
}